{
  "_format": "hh3-artifact-1",
  "contractName": "DodoPoolMock",
  "sourceName": "contracts/DodoPoolMock.sol",
  "abi": [
    {
      "inputs": [
        {
          "internalType": "address",
          "name": "baseToken",
          "type": "address"
        },
        {
          "internalType": "address",
          "name": "quoteToken",
          "type": "address"
        }
      ],
      "stateMutability": "nonpayable",
      "type": "constructor"
    },
    {
      "inputs": [],
      "name": "_BASE_CAPITAL_TOKEN_",
      "outputs": [
        {
          "internalType": "address",
          "name": "",
          "type": "address"
        }
      ],
      "stateMutability": "view",
      "type": "function"
    },
    {
      "inputs": [],
      "name": "_QUOTE_CAPITAL_TOKEN_",
      "outputs": [
        {
          "internalType": "address",
          "name": "",
          "type": "address"
        }
      ],
      "stateMutability": "view",
      "type": "function"
    },
    {
      "inputs": [
        {
          "internalType": "uint256",
          "name": "baseAmount",
          "type": "uint256"
        },
        {
          "internalType": "uint256",
          "name": "quoteAmount",
          "type": "uint256"
        },
        {
          "internalType": "address",
          "name": "assetTo",
          "type": "address"
        },
        {
          "internalType": "bytes",
          "name": "data",
          "type": "bytes"
        }
      ],
      "name": "flashLoan",
      "outputs": [],
      "stateMutability": "nonpayable",
      "type": "function"
    }
  ],
  "bytecode": "0x6080604052346100305761001a610014610104565b906101a0565b610022610035565b61085f6101b8823961085f90f35b61003b565b60405190565b5f80fd5b601f801991011690565b634e487b7160e01b5f52604160045260245ffd5b906100679061003f565b810190811060018060401b0382111761007f57604052565b610049565b90610097610090610035565b928361005d565b565b5f80fd5b60018060a01b031690565b6100b19061009d565b90565b6100bd816100a8565b036100c457565b5f80fd5b905051906100d5826100b4565b565b91906040838203126100ff57806100f36100fc925f86016100c8565b936020016100c8565b90565b610099565b610122610a178038038061011781610084565b9283398101906100d7565b9091565b5f1b90565b9061013c60018060a01b0391610126565b9181191691161790565b90565b61015d6101586101629261009d565b610146565b61009d565b90565b61016e90610149565b90565b61017a90610165565b90565b90565b9061019561019061019c92610171565b61017d565b825461012b565b9055565b906101ae6101b5925f610180565b6001610180565b56fe60806040526004361015610013575b610298565b61001d5f3561004c565b8063ac1fbc9814610047578063d0a494e4146100425763d689107c0361000e57610263565b61021e565b6100ec565b60e01c90565b60405190565b5f80fd5b5f80fd5b5f91031261006a57565b61005c565b1c90565b60018060a01b031690565b61008e906008610093930261006f565b610073565b90565b906100a1915461007e565b90565b6100b060015f90610096565b90565b60018060a01b031690565b6100c7906100b3565b90565b6100d3906100be565b9052565b91906100ea905f602085019401906100ca565b565b3461011c576100fc366004610060565b6101186101076100a4565b61010f610052565b918291826100d7565b0390f35b610058565b5f80fd5b90565b61013181610125565b0361013857565b5f80fd5b9050359061014982610128565b565b610154816100be565b0361015b57565b5f80fd5b9050359061016c8261014b565b565b5f80fd5b5f80fd5b5f80fd5b909182601f830112156101b45781359167ffffffffffffffff83116101af5760200192600183028401116101aa57565b610176565b610172565b61016e565b90608082820312610214576101d0815f840161013c565b926101de826020850161013c565b926101ec836040830161015f565b92606082013567ffffffffffffffff811161020f5761020b920161017a565b9091565b610121565b61005c565b5f0190565b346102505761023a6102313660046101b9565b93929092610581565b610242610052565b8061024c81610219565b0390f35b610058565b6102605f5f90610096565b90565b3461029357610273366004610060565b61028f61027e610255565b610286610052565b918291826100d7565b0390f35b610058565b5f80fd5b5f90565b5f90565b90565b90565b6102be6102b96102c3926102a4565b6102a7565b610125565b90565b5f1c90565b6102d76102dc916102c6565b610073565b90565b6102e990546102cb565b90565b6103006102fb610305926100b3565b6102a7565b6100b3565b90565b610311906102ec565b90565b61031d90610308565b90565b610329906102ec565b90565b61033590610320565b90565b61034190610320565b90565b5f80fd5b601f801991011690565b634e487b7160e01b5f52604160045260245ffd5b9061037090610348565b810190811067ffffffffffffffff82111761038a57604052565b610352565b60e01b90565b905051906103a282610128565b565b906020828203126103bd576103ba915f01610395565b90565b61005c565b6103ca610052565b3d5f823e3d90fd5b151590565b6103e0816103d2565b036103e757565b5f80fd5b905051906103f8826103d7565b565b9060208282031261041357610410915f016103eb565b90565b61005c565b61042190610125565b9052565b91602061044692949361043f60408201965f8301906100ca565b0190610418565b565b610451906102ec565b90565b61045d90610448565b90565b61046990610320565b90565b5f91031261047657565b61005c565b60209181520190565b90825f939282370152565b91906104a9816104a2816104ae9561047b565b8095610484565b610348565b0190565b9093916104f395936104dc6104e6926104d260808601985f8701906100ca565b6020850190610418565b6040830190610418565b606081850391015261048f565b90565b60209181520190565b5f7f466c617368206c6f616e206e6f74207265706169640000000000000000000000910152565b61053360156020926104f6565b61053c816104ff565b0190565b6105559060208101905f818303910152610526565b90565b1561055f57565b610567610052565b62461bcd60e51b81528061057d60048201610540565b0390fd5b939192909361058e61029c565b506105976102a0565b50806105ab6105a55f6102aa565b91610125565b115f14610817576105bb5f6102df565b9281945b61060760206105d56105d088610314565b61032c565b6370a08231906105fc6105e730610338565b926105f0610052565b9586948593849361038f565b8352600483016100d7565b03915afa908115610812575f916107e4575b5095602061062e61062988610314565b61032c565b9163a9059cbb926106535f86939561065e610647610052565b9788968795869461038f565b845260048401610425565b03925af180156107df576107b3575b5061067f61067a82610454565b610460565b9163eb2021c3919397949091833b156107ae576106bd6106b2935f979388946106a6610052565b9c8d998a98899761038f565b8752600487016104b2565b03925af19283156107a9576106e16020926106e6926107189661077d575b50610314565b61032c565b6370a082319061070d6106f830610338565b92610701610052565b9687948593849361038f565b8352600483016100d7565b03915afa80156107785761073b61074191610748945f9161074a575b5092610125565b91610125565b1015610558565b565b61076b915060203d8111610771575b6107638183610366565b8101906103a4565b5f610734565b503d610759565b6103c2565b61079c905f3d81116107a2575b6107948183610366565b81019061046c565b5f6106db565b503d61078a565b6103c2565b610344565b6107d39060203d81116107d8575b6107cb8183610366565b8101906103fa565b61066d565b503d6107c1565b6103c2565b610805915060203d811161080b575b6107fd8183610366565b8101906103a4565b5f610619565b503d6107f3565b6103c2565b61082160016102df565b9285946105bf56fea26469706673582212202d883b7543bc4690a4bce3c219e99ecbc8fa9edbd96b8ea01d68bcb350e0ef3964736f6c634300081c0033",
  "linkReferences": {},
  "deployedLinkReferences": {},
  "immutableReferences": {},
  "inputSourceName": "project/contracts/DodoPoolMock.sol",
  "buildInfoId": "solc-0_8_28-75e4aebbd49d873eace003f0a7b3fd19eff1cd9f"
}