{
  "_format": "hh3-artifact-1",
  "contractName": "FlashLoanArbitrage",
  "sourceName": "contracts/FlashLoanArbitrage.sol",
  "abi": [
    {
      "inputs": [
        {
          "internalType": "address",
          "name": "_dodoPool",
          "type": "address"
        }
      ],
      "stateMutability": "nonpayable",
      "type": "constructor"
    },
    {
      "inputs": [],
      "name": "InsufficientProfit",
      "type": "error"
    },
    {
      "inputs": [],
      "name": "InvalidAmount",
      "type": "error"
    },
    {
      "inputs": [
        {
          "internalType": "address",
          "name": "token",
          "type": "address"
        }
      ],
      "name": "SafeERC20FailedOperation",
      "type": "error"
    },
    {
      "inputs": [],
      "name": "Unauthorized",
      "type": "error"
    },
    {
      "inputs": [],
      "name": "UnsupportedRouterVersion",
      "type": "error"
    },
    {
      "anonymous": false,
      "inputs": [
        {
          "indexed": true,
          "internalType": "address",
          "name": "borrowedToken",
          "type": "address"
        },
        {
          "indexed": false,
          "internalType": "uint256",
          "name": "borrowedAmount",
          "type": "uint256"
        },
        {
          "indexed": false,
          "internalType": "uint256",
          "name": "profit",
          "type": "uint256"
        },
        {
          "indexed": false,
          "internalType": "address",
          "name": "buyRouter",
          "type": "address"
        },
        {
          "indexed": false,
          "internalType": "address",
          "name": "sellRouter",
          "type": "address"
        }
      ],
      "name": "ArbitrageExecuted",
      "type": "event"
    },
    {
      "anonymous": false,
      "inputs": [
        {
          "indexed": false,
          "internalType": "uint256",
          "name": "newRate",
          "type": "uint256"
        }
      ],
      "name": "FeeRateUpdated",
      "type": "event"
    },
    {
      "anonymous": false,
      "inputs": [
        {
          "indexed": true,
          "internalType": "address",
          "name": "newPool",
          "type": "address"
        }
      ],
      "name": "PoolUpdated",
      "type": "event"
    },
    {
      "inputs": [
        {
          "internalType": "address",
          "name": "sender",
          "type": "address"
        },
        {
          "internalType": "uint256",
          "name": "baseAmount",
          "type": "uint256"
        },
        {
          "internalType": "uint256",
          "name": "quoteAmount",
          "type": "uint256"
        },
        {
          "internalType": "bytes",
          "name": "data",
          "type": "bytes"
        }
      ],
      "name": "DPPFlashLoanCall",
      "outputs": [],
      "stateMutability": "nonpayable",
      "type": "function"
    },
    {
      "inputs": [
        {
          "internalType": "address",
          "name": "sender",
          "type": "address"
        },
        {
          "internalType": "uint256",
          "name": "baseAmount",
          "type": "uint256"
        },
        {
          "internalType": "uint256",
          "name": "quoteAmount",
          "type": "uint256"
        },
        {
          "internalType": "bytes",
          "name": "data",
          "type": "bytes"
        }
      ],
      "name": "DSPFlashLoanCall",
      "outputs": [],
      "stateMutability": "nonpayable",
      "type": "function"
    },
    {
      "inputs": [
        {
          "internalType": "address",
          "name": "sender",
          "type": "address"
        },
        {
          "internalType": "uint256",
          "name": "baseAmount",
          "type": "uint256"
        },
        {
          "internalType": "uint256",
          "name": "quoteAmount",
          "type": "uint256"
        },
        {
          "internalType": "bytes",
          "name": "data",
          "type": "bytes"
        }
      ],
      "name": "DVMFlashLoanCall",
      "outputs": [],
      "stateMutability": "nonpayable",
      "type": "function"
    },
    {
      "inputs": [],
      "name": "dodoFeeRate",
      "outputs": [
        {
          "internalType": "uint256",
          "name": "",
          "type": "uint256"
        }
      ],
      "stateMutability": "view",
      "type": "function"
    },
    {
      "inputs": [],
      "name": "dodoPool",
      "outputs": [
        {
          "internalType": "address",
          "name": "",
          "type": "address"
        }
      ],
      "stateMutability": "view",
      "type": "function"
    },
    {
      "inputs": [
        {
          "internalType": "address",
          "name": "token",
          "type": "address"
        }
      ],
      "name": "emergencyWithdraw",
      "outputs": [],
      "stateMutability": "nonpayable",
      "type": "function"
    },
    {
      "inputs": [],
      "name": "emergencyWithdrawNative",
      "outputs": [],
      "stateMutability": "nonpayable",
      "type": "function"
    },
    {
      "inputs": [
        {
          "internalType": "address",
          "name": "borrowedToken",
          "type": "address"
        },
        {
          "internalType": "uint256",
          "name": "borrowAmount",
          "type": "uint256"
        },
        {
          "internalType": "bool",
          "name": "isBase",
          "type": "bool"
        },
        {
          "internalType": "address",
          "name": "buyRouter",
          "type": "address"
        },
        {
          "internalType": "enum FlashLoanArbitrage.RouterVersion",
          "name": "buyRouterVersion",
          "type": "uint8"
        },
        {
          "internalType": "address",
          "name": "sellRouter",
          "type": "address"
        },
        {
          "internalType": "enum FlashLoanArbitrage.RouterVersion",
          "name": "sellRouterVersion",
          "type": "uint8"
        },
        {
          "internalType": "address[]",
          "name": "pathBuy",
          "type": "address[]"
        },
        {
          "internalType": "address[]",
          "name": "pathSell",
          "type": "address[]"
        },
        {
          "internalType": "uint24",
          "name": "buyFee",
          "type": "uint24"
        },
        {
          "internalType": "uint24",
          "name": "sellFee",
          "type": "uint24"
        },
        {
          "internalType": "uint256",
          "name": "minProfit",
          "type": "uint256"
        }
      ],
      "name": "executeArbitrageMixed",
      "outputs": [],
      "stateMutability": "nonpayable",
      "type": "function"
    },
    {
      "inputs": [
        {
          "internalType": "address",
          "name": "borrowedToken",
          "type": "address"
        },
        {
          "internalType": "uint256",
          "name": "borrowAmount",
          "type": "uint256"
        },
        {
          "internalType": "bool",
          "name": "isBase",
          "type": "bool"
        },
        {
          "internalType": "address",
          "name": "buyRouter",
          "type": "address"
        },
        {
          "internalType": "address",
          "name": "sellRouter",
          "type": "address"
        },
        {
          "internalType": "address[]",
          "name": "pathBuy",
          "type": "address[]"
        },
        {
          "internalType": "address[]",
          "name": "pathSell",
          "type": "address[]"
        },
        {
          "internalType": "uint256",
          "name": "minProfit",
          "type": "uint256"
        }
      ],
      "name": "executeArbitrageV2",
      "outputs": [],
      "stateMutability": "nonpayable",
      "type": "function"
    },
    {
      "inputs": [
        {
          "internalType": "address",
          "name": "borrowedToken",
          "type": "address"
        },
        {
          "internalType": "uint256",
          "name": "borrowAmount",
          "type": "uint256"
        },
        {
          "internalType": "bool",
          "name": "isBase",
          "type": "bool"
        },
        {
          "internalType": "address",
          "name": "buyRouter",
          "type": "address"
        },
        {
          "internalType": "address",
          "name": "sellRouter",
          "type": "address"
        },
        {
          "internalType": "address",
          "name": "intermediateToken",
          "type": "address"
        },
        {
          "internalType": "uint24",
          "name": "buyFee",
          "type": "uint24"
        },
        {
          "internalType": "uint24",
          "name": "sellFee",
          "type": "uint24"
        },
        {
          "internalType": "uint256",
          "name": "minProfit",
          "type": "uint256"
        }
      ],
      "name": "executeArbitrageV3",
      "outputs": [],
      "stateMutability": "nonpayable",
      "type": "function"
    },
    {
      "inputs": [],
      "name": "owner",
      "outputs": [
        {
          "internalType": "address",
          "name": "",
          "type": "address"
        }
      ],
      "stateMutability": "view",
      "type": "function"
    },
    {
      "inputs": [
        {
          "internalType": "uint256",
          "name": "_feeRate",
          "type": "uint256"
        }
      ],
      "name": "setDodoFeeRate",
      "outputs": [],
      "stateMutability": "nonpayable",
      "type": "function"
    },
    {
      "inputs": [
        {
          "internalType": "address",
          "name": "_dodoPool",
          "type": "address"
        }
      ],
      "name": "setDodoPool",
      "outputs": [],
      "stateMutability": "nonpayable",
      "type": "function"
    },
    {
      "stateMutability": "payable",
      "type": "receive"
    }
  ],
  "bytecode": "0x60a06040523461007e57610019610014610143565b610239565b610021610083565b612f7c61025682396080518181816106170152818161090701528181610b4e01528181610bac01528181610d81015281816111d1015281816112d0015281816113fd0152818161148c01528181611af8015261262c0152612f7c90f35b610089565b60405190565b5f80fd5b601f801991011690565b634e487b7160e01b5f52604160045260245ffd5b906100b59061008d565b810190811060018060401b038211176100cd57604052565b610097565b906100e56100de610083565b92836100ab565b565b5f80fd5b60018060a01b031690565b6100ff906100eb565b90565b61010b816100f6565b0361011257565b5f80fd5b9050519061012382610102565b565b9060208282031261013e5761013b915f01610116565b90565b6100e7565b6101616131d280380380610156816100d2565b928339810190610125565b90565b5f1b90565b906101755f1991610164565b9181191691161790565b90565b90565b90565b61019c6101976101a19261017f565b610185565b610182565b90565b90565b906101bc6101b76101c392610188565b6101a4565b8254610169565b9055565b906101d860018060a01b0391610164565b9181191691161790565b6101f66101f16101fb926100eb565b610185565b6100eb565b90565b610207906101e2565b90565b610213906101fe565b90565b90565b9061022e6102296102359261020a565b610216565b82546101c7565b9055565b61025390610249600960016101a7565b336080525f610219565b56fe60806040526004361015610015575b366108fa57005b61001f5f356100ee565b806307eb2135146100e95780630a00f9a8146100e45780631095eb17146100df5780633994552c146100da5780636ff1c9bc146100d55780637ed1f1dd146100d057806381b6fc59146100cb5780638da5cb5b146100c657806395e162bc146100c157806398b20863146100bc578063ae44c9e5146100b7578063d5b99797146100b25763eb2021c30361000e576108c3565b61088c565b61084c565b610762565b6106ee565b61065b565b6105d8565b610511565b61043f565b61040c565b6103a8565b610191565b610116565b60e01c90565b60405190565b5f80fd5b5f80fd5b5f91031261010c57565b6100fe565b5f0190565b3461014457610126366004610102565b61012e610b99565b6101366100f4565b8061014081610111565b0390f35b6100fa565b5f80fd5b90565b6101598161014d565b0361016057565b5f80fd5b9050359061017182610150565b565b9060208282031261018c57610189915f01610164565b90565b6100fe565b346101bf576101a96101a4366004610173565b610d60565b6101b16100f4565b806101bb81610111565b0390f35b6100fa565b60018060a01b031690565b6101d8906101c4565b90565b6101e4816101cf565b036101eb57565b5f80fd5b905035906101fc826101db565b565b151590565b61020c816101fe565b0361021357565b5f80fd5b9050359061022482610203565b565b6002111561023057565b5f80fd5b9050359061024182610226565b565b5f80fd5b5f80fd5b5f80fd5b909182601f830112156102895781359167ffffffffffffffff831161028457602001926020830284011161027f57565b61024b565b610247565b610243565b62ffffff1690565b61029f8161028e565b036102a657565b5f80fd5b905035906102b782610296565b565b610180818303126103a3576102d0825f83016101ef565b926102de8360208401610164565b926102ec8160408501610217565b926102fa82606083016101ef565b926103088360808401610234565b926103168160a085016101ef565b926103248260c08301610234565b9260e082013567ffffffffffffffff811161039e578361034591840161024f565b92909361010082013567ffffffffffffffff8111610399578161036991840161024f565b92909361039661037d8461012085016102aa565b9361038c8161014086016102aa565b9361016001610164565b90565b610149565b610149565b6100fe565b346103e9576103d36103bb3660046102b9565b9c9b909b9a919a9992999893989794979695966111b0565b6103db6100f4565b806103e581610111565b0390f35b6100fa565b9060208282031261040757610404915f016101ef565b90565b6100fe565b3461043a5761042461041f3660046103ee565b6112bc565b61042c6100f4565b8061043681610111565b0390f35b6100fa565b3461046d576104576104523660046103ee565b61145d565b61045f6100f4565b8061046981610111565b0390f35b6100fa565b909182601f830112156104ac5781359167ffffffffffffffff83116104a75760200192600183028401116104a257565b61024b565b610247565b610243565b9060808282031261050c576104c8815f84016101ef565b926104d68260208501610164565b926104e48360408301610164565b92606082013567ffffffffffffffff8111610507576105039201610472565b9091565b610149565b6100fe565b346105435761052d6105243660046104b1565b93929092611468565b6105356100f4565b8061053f81610111565b0390f35b6100fa565b9091610120828403126105d357610561835f84016101ef565b9261056f8160208501610164565b9261057d8260408301610217565b9261058b83606084016101ef565b9261059981608085016101ef565b926105a78260a083016101ef565b926105d06105b88460c085016102aa565b936105c68160e086016102aa565b9361010001610164565b90565b6100fe565b34610610576105fa6105eb366004610548565b97969096959195949294611ad3565b6106026100f4565b8061060c81610111565b0390f35b6100fa565b7f000000000000000000000000000000000000000000000000000000000000000090565b610642906101cf565b9052565b9190610659905f60208501940190610639565b565b3461068b5761066b366004610102565b610687610676610615565b61067e6100f4565b91829182610646565b0390f35b6100fa565b1c90565b90565b6106a79060086106ac9302610690565b610694565b90565b906106ba9154610697565b90565b6106c960015f906106af565b90565b6106d59061014d565b9052565b91906106ec905f602085019401906106cc565b565b3461071e576106fe366004610102565b61071a6107096106bd565b6107116100f4565b918291826106d9565b0390f35b6100fa565b60018060a01b031690565b61073e9060086107439302610690565b610723565b90565b90610751915461072e565b90565b61075f5f5f90610746565b90565b3461079257610772366004610102565b61078e61077d610754565b6107856100f4565b91829182610646565b0390f35b6100fa565b909161010082840312610847576107b0835f84016101ef565b926107be8160208501610164565b926107cc8260408301610217565b926107da83606084016101ef565b926107e881608085016101ef565b9260a081013567ffffffffffffffff8111610842578261080991830161024f565b92909360c083013567ffffffffffffffff811161083d5761082f8361083a92860161024f565b93909460e001610164565b90565b610149565b610149565b6100fe565b346108875761087161085f366004610797565b989790979691969592959493946120be565b6108796100f4565b8061088381610111565b0390f35b6100fa565b346108be576108a861089f3660046104b1565b939290926120d2565b6108b06100f4565b806108ba81610111565b0390f35b6100fa565b346108f5576108df6108d63660046104b1565b939290926120e5565b6108e76100f4565b806108f181610111565b0390f35b6100fa565b5f80fd5b3361093161092b7f00000000000000000000000000000000000000000000000000000000000000006101cf565b916101cf565b036109405761093e610b20565b565b5f6282b42960e81b81528061095760048201610111565b0390fd5b90565b61097261096d610977926101c4565b61095b565b6101c4565b90565b6109839061095e565b90565b61098f9061097a565b90565b90565b6109a96109a46109ae92610992565b61095b565b61014d565b90565b905090565b6109c15f80926109b1565b0190565b6109ce906109b6565b90565b601f801991011690565b634e487b7160e01b5f52604160045260245ffd5b906109f9906109d1565b810190811067ffffffffffffffff821117610a1357604052565b6109db565b90610a2b610a246100f4565b92836109ef565b565b67ffffffffffffffff8111610a4b57610a476020916109d1565b0190565b6109db565b90610a62610a5d83610a2d565b610a18565b918252565b606090565b3d5f14610a8757610a7c3d610a50565b903d5f602084013e5b565b610a8f610a67565b90610a85565b60209181520190565b5f7f4e6174697665207472616e73666572206661696c656400000000000000000000910152565b610ad26016602092610a95565b610adb81610a9e565b0190565b610af49060208101905f818303910152610ac5565b90565b15610afe57565b610b066100f4565b62461bcd60e51b815280610b1c60048201610adf565b0390fd5b610b2930610986565b3180610b3d610b375f610995565b9161014d565b11610b46575b50565b5f80610b93927f000000000000000000000000000000000000000000000000000000000000000090610b766100f4565b9081610b81816109c5565b03925af1610b8d610a6c565b50610af7565b5f610b43565b610ba16108fe565b565b33610bd6610bd07f00000000000000000000000000000000000000000000000000000000000000006101cf565b916101cf565b03610be657610be490610cfc565b565b5f6282b42960e81b815280610bfd60048201610111565b0390fd5b90565b610c18610c13610c1d92610c01565b61095b565b61014d565b90565b5f7f466565207261746520746f6f2068696768000000000000000000000000000000910152565b610c546011602092610a95565b610c5d81610c20565b0190565b610c769060208101905f818303910152610c47565b90565b15610c8057565b610c886100f4565b62461bcd60e51b815280610c9e60048201610c61565b0390fd5b5f1b90565b90610cb35f1991610ca2565b9181191691161790565b610cd1610ccc610cd69261014d565b61095b565b61014d565b90565b90565b90610cf1610cec610cf892610cbd565b610cd9565b8254610ca7565b9055565b610d1a81610d13610d0d6064610c04565b9161014d565b1115610c79565b610d25816001610cdc565b610d5b7f208f1b468d3d61f0f085e975bd9d04367c930d599642faad06695229f3eadcd891610d526100f4565b918291826106d9565b0390a1565b610d6990610ba3565b565b9c9b9a9998979695949392919033610dab610da57f00000000000000000000000000000000000000000000000000000000000000006101cf565b916101cf565b03610dbb57610db99d611062565b565b5f6282b42960e81b815280610dd260048201610111565b0390fd5b634e487b7160e01b5f52602160045260245ffd5b60021115610df457565b610dd6565b90610e0382610dea565b565b610e0e90610df9565b90565b610e1a90610e05565b9052565b60209181520190565b90565b610e33906101cf565b9052565b90610e4481602093610e2a565b0190565b50610e579060208101906101ef565b90565b60200190565b91610e6e82610e7492610e1e565b92610e27565b90815f905b828210610e87575050505090565b90919293610ea9610ea3600192610e9e8886610e48565b610e37565b95610e5a565b920190929192610e79565b610ebd9061028e565b9052565b979290610f5a97610f619c979b9e9d9b610f29610f4f98610f1f610f44996101209f988f610f18610f369a610f0e606094610f0461014086019d5f870190610e11565b6020850190610e11565b6040830190610639565b0190610639565b60808d0190610639565b8a830360a08c0152610e60565b9187830360c0890152610e60565b9860e08501906106cc565b610100830190610eb4565b0190610eb4565b565b5f1c90565b610f74610f7991610f63565b610723565b90565b610f869054610f68565b90565b610f929061095e565b90565b610f9e90610f89565b90565b610faa9061097a565b90565b5f80fd5b60e01b90565b5f910312610fc157565b6100fe565b5190565b60209181520190565b90825f9392825e0152565b610ffd61100660209361100b93610ff481610fc6565b93848093610fca565b95869101610fd3565b6109d1565b0190565b90926110429061103861104f969461102e60808601975f8701906106cc565b60208501906106cc565b6040830190610639565b6060818403910152610fde565b90565b61105a6100f4565b3d5f823e3d90fd5b969c9397909c9b959a94999298919b8d61108461107e5f610995565b9161014d565b14611194576110c19a60209a6110b29a9d99909192939495969798996110a86100f4565b9e8f9d8e01610ec1565b602082018103825203826109ef565b91815f1461118657805b915f1461118157506110dc5f610995565b5b6110f66110f16110ec5f610f7c565b610f95565b610fa1565b63d0a494e492919361110730610986565b90823b1561117c575f94611139869261112e946111226100f4565b998a9889978896610fb1565b86526004860161100f565b03925af180156111775761114b575b50565b61116a905f3d8111611170575b61116281836109ef565b810190610fb7565b5f611148565b503d611158565b611052565b610fad565b6110dd565b61118f5f610995565b6110cb565b5f63162908e360e11b8152806111ac60048201610111565b0390fd5b906111c69d9c9b9a999897969594939291610d6b565b565b336111fb6111f57f00000000000000000000000000000000000000000000000000000000000000006101cf565b916101cf565b0361120b5761120990611270565b565b5f6282b42960e81b81528061122260048201610111565b0390fd5b9061123760018060a01b0391610ca2565b9181191691161790565b61124a9061097a565b90565b90565b9061126561126061126c92611241565b61124d565b8254611226565b9055565b61127a815f611250565b6112a47f380cec482764ddef4f75351b5398e3e2bea99ba23e53a00d5521f569fb668e1f91611241565b906112ad6100f4565b806112b781610111565b0390a2565b6112c5906111c8565b565b336112fa6112f47f00000000000000000000000000000000000000000000000000000000000000006101cf565b916101cf565b0361130a5761130890611376565b565b5f6282b42960e81b81528061132160048201610111565b0390fd5b61132e9061095e565b90565b61133a90611325565b90565b6113469061097a565b90565b9050519061135682610150565b565b906020828203126113715761136e915f01611349565b90565b6100fe565b6113be602061138c61138784611331565b61133d565b6370a08231906113b361139e30610986565b926113a76100f4565b95869485938493610fb1565b835260048301610646565b03915afa908115611458575f9161142a575b50806113e46113de5f610995565b9161014d565b116113ee575b5050565b6113fa61142392611331565b907f0000000000000000000000000000000000000000000000000000000000000000909161214c565b5f806113ea565b61144b915060203d8111611451575b61144381836109ef565b810190611358565b5f6113d0565b503d611439565b611052565b611466906112c7565b565b916114799492939190919293612438565b565b9796959493929190336114b66114b07f00000000000000000000000000000000000000000000000000000000000000006101cf565b916101cf565b036114c6576114c498611821565b565b5f6282b42960e81b8152806114dd60048201610111565b0390fd5b90565b6114f86114f36114fd926114e1565b61095b565b61028e565b90565b90565b61151761151261151c92611500565b61095b565b61028e565b90565b90565b61153661153161153b9261151f565b61095b565b61028e565b90565b5f7f496e76616c696420627579206665650000000000000000000000000000000000910152565b611572600f602092610a95565b61157b8161153e565b0190565b6115949060208101905f818303910152611565565b90565b1561159e57565b6115a66100f4565b62461bcd60e51b8152806115bc6004820161157f565b0390fd5b5f7f496e76616c69642073656c6c2066656500000000000000000000000000000000910152565b6115f46010602092610a95565b6115fd816115c0565b0190565b6116169060208101905f8183039101526115e7565b90565b1561162057565b6116286100f4565b62461bcd60e51b81528061163e60048201611601565b0390fd5b90565b61165961165461165e92611642565b61095b565b61014d565b90565b67ffffffffffffffff81116116795760208091020190565b6109db565b9061169061168b83611661565b610a18565b918252565b369037565b906116bf6116a78361167e565b926020806116b58693611661565b9201910390611695565b565b634e487b7160e01b5f52603260045260245ffd5b5190565b906116e3826116d5565b8110156116f4576020809102010190565b6116c1565b90611703906101cf565b9052565b90565b61171e61171961172392611707565b61095b565b61014d565b90565b60200190565b60200190565b9061174f611749611742846116d5565b8093610e1e565b92611726565b905f5b81811061175f5750505090565b9091926117786117726001928651610e37565b9461172c565b9101919091611752565b9561012097916117f4916117e7611818989b9e9d9b6117dd61181f9e996117d361180d9a60408f6117cc6118029d6117c261014084019c5f850190610e11565b6020830190610e11565b0190610639565b60608d0190610639565b60808b0190610639565b88820360a08a0152611732565b9086820360c0880152611732565b9860e08501906106cc565b610100830190610eb4565b0190610eb4565b565b95979492919690978861183c6118365f610995565b9161014d565b14611ab75761196a9561195b948261185e6118586101f46114e4565b9161028e565b148015611a9b575b8015611a7a575b61187690611597565b8361188b6118856101f46114e4565b9161028e565b148015611a5e575b8015611a3d575b6118a390611619565b6118b56118b06002611645565b61169a565b6118d18a6118cc836118c65f610995565b906116d9565b6116f9565b6118ee826118e9836118e3600161170a565b906116d9565b6116f9565b61191c6119036118fe6002611645565b61169a565b92611917846119115f610995565b906116d9565b6116f9565b6119398a6119348461192e600161170a565b906116d9565b6116f9565b60019760019a969091929394959661194f6100f4565b9b8c9a60208c01611782565b602082018103825203826109ef565b91815f14611a2f57805b915f14611a2a57506119855f610995565b5b61199f61199a6119955f610f7c565b610f95565b610fa1565b63d0a494e49291936119b030610986565b90823b15611a25575f946119e286926119d7946119cb6100f4565b998a9889978896610fb1565b86526004860161100f565b03925af18015611a20576119f4575b50565b611a13905f3d8111611a19575b611a0b81836109ef565b810190610fb7565b5f6119f1565b503d611a01565b611052565b610fad565b611986565b611a385f610995565b611974565b506118a384611a56611a50612710611522565b9161028e565b14905061189a565b5083611a74611a6e610bb8611503565b9161028e565b14611893565b5061187683611a93611a8d612710611522565b9161028e565b14905061186d565b5082611ab1611aab610bb8611503565b9161028e565b14611866565b5f63162908e360e11b815280611acf60048201610111565b0390fd5b90611ae4989796959493929161147b565b565b98979695949392919033611b22611b1c7f00000000000000000000000000000000000000000000000000000000000000006101cf565b916101cf565b03611b3257611b3099611e1c565b565b5f6282b42960e81b815280611b4960048201610111565b0390fd5b5090565b5f7f496e76616c696420706174687300000000000000000000000000000000000000910152565b611b85600d602092610a95565b611b8e81611b51565b0190565b611ba79060208101905f818303910152611b78565b90565b15611bb157565b611bb96100f4565b62461bcd60e51b815280611bcf60048201611b92565b0390fd5b9190811015611be3576020020190565b6116c1565b35611bf2816101db565b90565b60207f6420746f6b656e00000000000000000000000000000000000000000000000000917f5061746820627579206d757374207374617274207769746820626f72726f77655f8201520152565b611c4f6027604092610a95565b611c5881611bf5565b0190565b611c719060208101905f818303910152611c42565b90565b15611c7b57565b611c836100f4565b62461bcd60e51b815280611c9960048201611c5c565b0390fd5b634e487b7160e01b5f52601160045260245ffd5b611cc0611cc69193929361014d565b9261014d565b8203918211611cd157565b611c9d565b60207f20746f6b656e0000000000000000000000000000000000000000000000000000917f506174682073656c6c206d75737420656e64207769746820626f72726f7765645f8201520152565b611d306026604092610a95565b611d3981611cd6565b0190565b611d529060208101905f818303910152611d23565b90565b15611d5c57565b611d646100f4565b62461bcd60e51b815280611d7a60048201611d3d565b0390fd5b5f7f5061746873206d75737420636f6e6e6563740000000000000000000000000000910152565b611db26012602092610a95565b611dbb81611d7e565b0190565b611dd49060208101905f818303910152611da5565b90565b15611dde57565b611de66100f4565b62461bcd60e51b815280611dfc60048201611dbf565b0390fd5b611e14611e0f611e1992610992565b61095b565b61028e565b90565b9291979593909896949689611e39611e335f610995565b9161014d565b146120a257611fa496602096611f9596611e548b8290611b4d565b611e67611e616002611645565b9161014d565b101580612077575b611e7890611baa565b611eaf611e97611e928d84611e8c5f610995565b91611bd3565b611be8565b611ea9611ea38a6101cf565b916101cf565b14611c74565b611efb611ee3611ede8486611ed8611ec8888a90611b4d565b611ed2600161170a565b90611cb1565b91611bd3565b611be8565b611ef5611eef8a6101cf565b916101cf565b14611d55565b611f63611f30611f2b8d80611f25611f1587928890611b4d565b611f1f600161170a565b90611cb1565b91611bd3565b611be8565b611f5d611f57611f52611f4d8789611f475f610995565b91611bd3565b611be8565b6101cf565b916101cf565b14611dd7565b5f9a5f979695909192939495611f785f611e00565b97611f825f611e00565b99611f8b6100f4565b9e8f9d8e01610ec1565b602082018103825203826109ef565b91815f1461206957805b915f146120645750611fbf5f610995565b5b611fd9611fd4611fcf5f610f7c565b610f95565b610fa1565b63d0a494e4929193611fea30610986565b90823b1561205f575f9461201c8692612011946120056100f4565b998a9889978896610fb1565b86526004860161100f565b03925af1801561205a5761202e575b50565b61204d905f3d8111612053575b61204581836109ef565b810190610fb7565b5f61202b565b503d61203b565b611052565b610fad565b611fc0565b6120725f610995565b611fae565b50611e78612086838590611b4d565b6120996120936002611645565b9161014d565b10159050611e6f565b5f63162908e360e11b8152806120ba60048201610111565b0390fd5b906120d0999897969594939291611ae6565b565b916120e39492939190919293612438565b565b916120f69492939190919293612438565b565b63ffffffff1690565b63ffffffff60e01b1690565b61212161211c612126926120f8565b610fb1565b612101565b90565b91602061214a92949361214360408201965f830190610639565b01906106cc565b565b90612193612198936121846004949361216b63a9059cbb91939161210d565b926121746100f4565b9687946020860190815201612129565b602082018103825203836109ef565b612742565b565b6121a3906101c4565b90565b6121af8161219a565b036121b657565b5f80fd5b905035906121c7826121a6565b565b909291926121de6121d982611661565b610a18565b938185526020808601920283019281841161221b57915b8383106122025750505050565b6020809161221084866101ef565b8152019201916121f5565b61024b565b9080601f8301121561223e5781602061223b933591016121c9565b90565b610243565b6101408183031261230b5761225a825f8301610234565b926122688360208401610234565b9261227681604085016121ba565b9261228482606083016121ba565b9261229283608084016121ba565b9260a083013567ffffffffffffffff811161230657816122b3918501612220565b9260c081013567ffffffffffffffff811161230157826122d4918301612220565b926122fe6122e58460e08501610164565b936122f48161010086016102aa565b93610120016102aa565b90565b610149565b610149565b6100fe565b6123199061097a565b90565b61232861232d91610f63565b610694565b90565b61233a905461231c565b90565b61234c6123529193929361014d565b9261014d565b9161235e83820261014d565b92818404149015171561236d57565b611c9d565b61238661238161238b9261151f565b61095b565b61014d565b90565b634e487b7160e01b5f52601260045260245ffd5b6123ae6123b49161014d565b9161014d565b9081156123bf570490565b61238e565b6123d36123d99193929361014d565b9261014d565b82018092116123e457565b611c9d565b5f90565b6123f790516101cf565b90565b61242f6124369461242560609498979561241b608086019a5f8701906106cc565b60208501906106cc565b6040830190610639565b0190610639565b565b506124699061256c6124546124759661246f9690810190612243565b949c959a939e929d9197989b909b9896612310565b99612310565b9a612310565b9b9a949891928161248e6124885f610995565b9161014d565b115f1461273b57505b996124ca8b6124c46124b3826124ad6001612330565b9061233d565b6124be612710612372565b906123a2565b906123c4565b956124d36123e9565b506124e66124e05f610df9565b91610df9565b145f146126f0576124fc915089908b9091612c04565b915b61251061250a5f610df9565b91610df9565b145f146126a657506125259189919091612c04565b505b602061253a61253585611331565b61133d565b6370a082319061256161254c30610986565b926125556100f4565b96879485938493610fb1565b835260048301610646565b03915afa80156126a1576125a3925f91612673575b5061259e61258e85611331565b6125975f610f7c565b849161214c565b611cb1565b916125b76125b1849261014d565b9161014d565b106126575761261990826125d36125cd5f610995565b9161014d565b1161261e575b939192946126077f87289da4e0dcd01a271da0e8951bd28157069593576309a32ff8ed8d206ce90295611241565b956126106100f4565b948594856123fa565b0390a2565b61265261262a82611331565b7f0000000000000000000000000000000000000000000000000000000000000000859161214c565b6125d9565b5f632723fc7560e11b81528061266f60048201610111565b0390fd5b612694915060203d811161269a575b61268c81836109ef565b810190611358565b5f612581565b503d612682565b611052565b6126ea928a926126e36126de6126cd6126c8856126c25f610995565b906116d9565b6123ed565b936126d8600161170a565b906116d9565b6123ed565b929361293b565b50612527565b612735918a918c61272e6127296127186127138561270d5f610995565b906116d9565b6123ed565b93612723600161170a565b906116d9565b6123ed565b929361293b565b916124fe565b9050612497565b905f60209161274f6123e9565b506127586123e9565b50828151910182855af1156127eb573d5f519061277d6127775f610995565b9161014d565b145f146127d1575061278e8161133d565b3b6127a161279b5f610995565b9161014d565b145b6127aa5750565b6127b66127cd9161133d565b5f918291635274afe760e01b835260048301610646565b0390fd5b6127e46127de600161170a565b9161014d565b14156127a3565b6040513d5f823e3d90fd5b612801610100610a18565b90565b9061280e9061028e565b9052565b9061281c9061014d565b9052565b61283461282f61283992610992565b61095b565b6101c4565b90565b90612846906101c4565b9052565b6128539061095e565b90565b61285f9061284a565b90565b61286b9061097a565b90565b6128779061028e565b9052565b6128849061014d565b9052565b612891906101c4565b9052565b9060e080612923936128ad5f8201515f860190610e2a565b6128bf60208201516020860190610e2a565b6128d16040820151604086019061286e565b6128e360608201516060860190610e2a565b6128f56080820151608086019061287b565b61290760a082015160a086019061287b565b61291960c082015160c086019061287b565b0151910190612888565b565b9190612939905f6101008501940190612895565b565b93916129456123e9565b508061295090611331565b85839061295c92612d21565b9291903061296990610986565b904290915f935f956129796127f6565b975f890190612987916116f9565b6020880190612995916116f9565b60408701906129a391612804565b60608601906129b1916116f9565b60808501906129bf91612812565b60a08401906129cd91612812565b6129d690610995565b60c08301906129e491612812565b6129ed90612820565b60e08201906129fb9161283c565b90612a0590612856565b612a0e90612862565b63414bf389612a1b6100f4565b8093612a278293610fb1565b82526004820190612a3791612925565b03815a6020945f91f1908115612a80575f91612a52575b5090565b612a73915060203d8111612a79575b612a6b81836109ef565b810190611358565b5f612a4e565b503d612a61565b611052565b612a8e9061095e565b90565b612a9a90612a85565b90565b612aa69061097a565b90565b67ffffffffffffffff8111612ac15760208091020190565b6109db565b90929192612adb612ad682612aa9565b610a18565b9381855260208086019202830192818411612b1857915b838310612aff5750505050565b60208091612b0d8486611349565b815201920191612af2565b61024b565b9080601f83011215612b3b57816020612b3893519101612ac6565b90565b610243565b90602082820312612b70575f82015167ffffffffffffffff8111612b6b57612b689201612b1d565b90565b610149565b6100fe565b612b7e90610995565b9052565b90612bbf612bca91612bd196989795612bb2608096612ba860a08801945f8901906106cc565b6020870190612b75565b8482036040860152611732565b966060830190610639565b01906106cc565b565b5190565b90612be182612bd3565b811015612bf2576020809102010190565b6116c1565b612c01905161014d565b90565b90612c4e612c495f93612c156123e9565b50612c44612c3c612c37612c3289612c2c8a610995565b906116d9565b6123ed565b611331565b828691612d21565b612a91565b612a9d565b612c7b836338ed1739612c868297612c6530610986565b4291612c6f6100f4565b9a8b998a988997610fb1565b875260048701612b82565b03925af1908115612ced57612cc891612cc3915f91612ccb575b50612cbd612cad82612bd3565b612cb7600161170a565b90611cb1565b90612bd7565b612bf7565b90565b612ce791503d805f833e612cdf81836109ef565b810190612b40565b5f612ca0565b611052565b612cfb9061097a565b90565b916020612d1f929493612d1860408201965f830190610639565b0190610639565b565b612d2a8161133d565b602063dd62ed3e91612d3b30612cf2565b90612d588694612d63612d4c6100f4565b96879586948594610fb1565b845260048401612cfe565b03915afa938415612dbc57612d8c94612d86925f91612d8e575b509293926123c4565b91612de4565b565b612daf915060203d8111612db5575b612da781836109ef565b810190611358565b5f612d7d565b503d612d9d565b611052565b916020612de2929493612ddb60408201965f830190610639565b0190612b75565b565b9091612e27600491612e1863095ea7b3612dff87939161210d565b92612e086100f4565b9586946020860190815201612129565b602082018103825203826109ef565b90612e3c612e36828490612ea4565b156101fe565b612e46575b505050565b612e936004612e9894612e8e8491612e7f63095ea7b3612e665f9161210d565b92612e6f6100f4565b9687946020860190815201612dc1565b602082018103825203836109ef565b612742565b612742565b5f8080612e41565b5f90565b905f602091612eb1612ea0565b50612eba612ea0565b50612ec36123e9565b50612ecc6123e9565b50828151910182855af13d915f51919283612ee8575b50505090565b90919250612efe612ef85f610995565b9161014d565b145f14612f2c57612f0f915061133d565b3b612f22612f1c5f610995565b9161014d565b115b5f8080612ee2565b50612f40612f3a600161170a565b9161014d565b14612f2456fea2646970667358221220081f9f8ccae346fc0e8821310e3c0cd0d0df1d55ff4a7c7abc3c3936898634e264736f6c634300081c0033",
  "linkReferences": {},
  "deployedLinkReferences": {},
  "immutableReferences": {
    "1583": [
      {
        "length": 32,
        "start": 1559
      },
      {
        "length": 32,
        "start": 2311
      },
      {
        "length": 32,
        "start": 2894
      },
      {
        "length": 32,
        "start": 2988
      },
      {
        "length": 32,
        "start": 3457
      },
      {
        "length": 32,
        "start": 4561
      },
      {
        "length": 32,
        "start": 4816
      },
      {
        "length": 32,
        "start": 5117
      },
      {
        "length": 32,
        "start": 5260
      },
      {
        "length": 32,
        "start": 6904
      },
      {
        "length": 32,
        "start": 9772
      }
    ]
  },
  "inputSourceName": "project/contracts/FlashLoanArbitrage.sol",
  "buildInfoId": "solc-0_8_28-75e4aebbd49d873eace003f0a7b3fd19eff1cd9f"
}