{
  "_format": "hh3-artifact-1",
  "contractName": "RouterV2Mock",
  "sourceName": "contracts/RouterV2Mock.sol",
  "abi": [
    {
      "inputs": [
        {
          "internalType": "uint256",
          "name": "amountIn",
          "type": "uint256"
        },
        {
          "internalType": "address[]",
          "name": "path",
          "type": "address[]"
        }
      ],
      "name": "getAmountsOut",
      "outputs": [
        {
          "internalType": "uint256[]",
          "name": "amounts",
          "type": "uint256[]"
        }
      ],
      "stateMutability": "view",
      "type": "function"
    },
    {
      "inputs": [],
      "name": "mockOutput",
      "outputs": [
        {
          "internalType": "uint256",
          "name": "",
          "type": "uint256"
        }
      ],
      "stateMutability": "view",
      "type": "function"
    },
    {
      "inputs": [
        {
          "internalType": "uint256",
          "name": "_output",
          "type": "uint256"
        }
      ],
      "name": "setMockOutput",
      "outputs": [],
      "stateMutability": "nonpayable",
      "type": "function"
    },
    {
      "inputs": [
        {
          "internalType": "uint256",
          "name": "amountIn",
          "type": "uint256"
        },
        {
          "internalType": "uint256",
          "name": "amountOutMin",
          "type": "uint256"
        },
        {
          "internalType": "address[]",
          "name": "path",
          "type": "address[]"
        },
        {
          "internalType": "address",
          "name": "to",
          "type": "address"
        },
        {
          "internalType": "uint256",
          "name": "deadline",
          "type": "uint256"
        }
      ],
      "name": "swapExactTokensForTokens",
      "outputs": [
        {
          "internalType": "uint256[]",
          "name": "amounts",
          "type": "uint256[]"
        }
      ],
      "stateMutability": "nonpayable",
      "type": "function"
    }
  ],
  "bytecode": "0x608060405234601c57600e6020565b610b7861002b8239610b7890f35b6026565b60405190565b5f80fdfe60806040526004361015610013575b6103dd565b61001d5f3561005c565b806338ed173914610057578063448a3bce14610052578063c821bb141461004d5763d06ca61f0361000e576103a7565b61032e565b6102d6565b61022e565b60e01c90565b60405190565b5f80fd5b5f80fd5b5f80fd5b90565b61008081610074565b0361008757565b5f80fd5b9050359061009882610077565b565b5f80fd5b5f80fd5b5f80fd5b909182601f830112156100e05781359167ffffffffffffffff83116100db5760200192602083028401116100d657565b6100a2565b61009e565b61009a565b60018060a01b031690565b6100f9906100e5565b90565b610105816100f0565b0361010c57565b5f80fd5b9050359061011d826100fc565b565b9060a08282031261018a57610136815f840161008b565b92610144826020850161008b565b9260408101359167ffffffffffffffff831161018557610169846101829484016100a6565b9390946101798160608601610110565b9360800161008b565b90565b610070565b61006c565b5190565b60209181520190565b60200190565b6101ab90610074565b9052565b906101bc816020936101a2565b0190565b60200190565b906101e36101dd6101d68461018f565b8093610193565b9261019c565b905f5b8181106101f35750505090565b90919261020c61020660019286516101af565b946101c0565b91019190916101e6565b61022b9160208201915f8184039101526101c6565b90565b346102655761026161025061024436600461011f565b949390939291926107ec565b610258610062565b91829182610216565b0390f35b610068565b5f91031261027457565b61006c565b1c90565b90565b6102909060086102959302610279565b61027d565b90565b906102a39154610280565b90565b6102b15f5f90610298565b90565b6102bd90610074565b9052565b91906102d4905f602085019401906102b4565b565b34610306576102e636600461026a565b6103026102f16102a6565b6102f9610062565b918291826102c1565b0390f35b610068565b9060208282031261032457610321915f0161008b565b90565b61006c565b5f0190565b3461035c5761034661034136600461030b565b610a8d565b61034e610062565b8061035881610329565b0390f35b610068565b9190916040818403126103a25761037a835f830161008b565b92602082013567ffffffffffffffff811161039d5761039992016100a6565b9091565b610070565b61006c565b346103d8576103d46103c36103bd366004610361565b91610a99565b6103cb610062565b91829182610216565b0390f35b610068565b5f80fd5b606090565b5090565b90565b90565b6104046103ff610409926103ea565b6103ed565b610074565b90565b60209181520190565b5f7f496e76616c696420706174680000000000000000000000000000000000000000910152565b610449600c60209261040c565b61045281610415565b0190565b61046b9060208101905f81830391015261043c565b90565b1561047557565b61047d610062565b62461bcd60e51b81528061049360048201610456565b0390fd5b5f7f4578706972656400000000000000000000000000000000000000000000000000910152565b6104cb600760209261040c565b6104d481610497565b0190565b6104ed9060208101905f8183039101526104be565b90565b156104f757565b6104ff610062565b62461bcd60e51b815280610515600482016104d8565b0390fd5b634e487b7160e01b5f52603260045260245ffd5b919081101561053d576020020190565b610519565b90565b61055961055461055e92610542565b6103ed565b610074565b90565b3561056b816100fc565b90565b61058261057d610587926100e5565b6103ed565b6100e5565b90565b6105939061056e565b90565b61059f9061058a565b90565b6105ab9061056e565b90565b6105b7906105a2565b90565b6105c3906105a2565b90565b601f801991011690565b634e487b7160e01b5f52604160045260245ffd5b906105ee906105c6565b810190811067ffffffffffffffff82111761060857604052565b6105d0565b60e01b90565b151590565b61062181610613565b0361062857565b5f80fd5b9050519061063982610618565b565b9060208282031261065457610651915f0161062c565b90565b61006c565b610662906100f0565b9052565b60409061068f610696949695939661068560608401985f850190610659565b6020830190610659565b01906102b4565b565b6106a0610062565b3d5f823e3d90fd5b5f1c90565b6106b96106be916106a8565b61027d565b90565b6106cb90546106ad565b90565b90565b6106e56106e06106ea926106ce565b6103ed565b610074565b90565b634e487b7160e01b5f52601160045260245ffd5b61071061071691939293610074565b92610074565b820391821161072157565b6106ed565b91602061074792949361074060408201965f830190610659565b01906102b4565b565b9061075c610755610062565b92836105e4565b565b67ffffffffffffffff81116107765760208091020190565b6105d0565b9061078d6107888361075e565b610749565b918252565b369037565b906107bc6107a48361077b565b926020806107b2869361075e565b9201910390610792565b565b906107c88261018f565b8110156107d9576020809102010190565b610519565b906107e890610074565b9052565b9461083f91509291926107fd6103e1565b5061082661080c8585906103e6565b61081f61081960026103f0565b91610074565b101561046e565b61083861083242610074565b91610074565b10156104f0565b61086b61086661086161085c85856108565f610545565b9161052d565b610561565b610596565b6105ae565b60206323b872dd91339061089b5f610882306105ba565b956108a68b61088f610062565b9889978896879561060d565b855260048501610666565b03925af18015610a2e57610a02575b506108bf5f6106c1565b6108d16108cb5f610545565b91610074565b115f146109fc576108e15f6106c1565b5b90602061092661092161091c61091787866109116109018b8a906103e6565b61090b60016106d1565b90610701565b9161052d565b610561565b610596565b6105ae565b63a9059cbb959061094a5f869861095561093e610062565b9a8b968795869461060d565b845260048401610726565b03925af19384156109f7576109ac6109c3936109bc926109c8976109cb575b506109a461098b6109868887906103e6565b610797565b9861099f8a6109995f610545565b906107be565b6107de565b9287956103e6565b6109b660016106d1565b90610701565b90926107be565b6107de565b90565b6109eb9060203d81116109f0575b6109e381836105e4565b81019061063b565b610974565b503d6109d9565b610698565b836108e2565b610a229060203d8111610a27575b610a1a81836105e4565b81019061063b565b6108b5565b503d610a10565b610698565b5f1b90565b90610a445f1991610a33565b9181191691161790565b610a62610a5d610a6792610074565b6103ed565b610074565b90565b90565b90610a82610a7d610a8992610a4e565b610a6a565b8254610a38565b9055565b610a97905f610a6d565b565b9190610b2d610b3292610aaa6103e1565b50610abe610ab98483906103e6565b610797565b94610adb81610ad688610ad05f610545565b906107be565b6107de565b610ae45f6106c1565b610af6610af05f610545565b91610074565b115f14610b355750610b26610b16610b0d5f6106c1565b925b87956103e6565b610b2060016106d1565b90610701565b90926107be565b6107de565b90565b610b16610b269192610b0f56fea26469706673582212204720a9e907856ee7eedaad15e783c1cd95069744321098d2b1e49c5eb063abba64736f6c634300081c0033",
  "linkReferences": {},
  "deployedLinkReferences": {},
  "immutableReferences": {},
  "inputSourceName": "project/contracts/RouterV2Mock.sol",
  "buildInfoId": "solc-0_8_28-763e7ece41fcd09a50c437bf1583240ccf2e83d5"
}