{
  "_format": "hh3-artifact-1",
  "contractName": "RouterV3Mock",
  "sourceName": "contracts/RouterV3Mock.sol",
  "abi": [
    {
      "inputs": [
        {
          "components": [
            {
              "internalType": "address",
              "name": "tokenIn",
              "type": "address"
            },
            {
              "internalType": "address",
              "name": "tokenOut",
              "type": "address"
            },
            {
              "internalType": "uint24",
              "name": "fee",
              "type": "uint24"
            },
            {
              "internalType": "address",
              "name": "recipient",
              "type": "address"
            },
            {
              "internalType": "uint256",
              "name": "deadline",
              "type": "uint256"
            },
            {
              "internalType": "uint256",
              "name": "amountIn",
              "type": "uint256"
            },
            {
              "internalType": "uint256",
              "name": "amountOutMinimum",
              "type": "uint256"
            },
            {
              "internalType": "uint160",
              "name": "sqrtPriceLimitX96",
              "type": "uint160"
            }
          ],
          "internalType": "struct RouterV3Mock.ExactInputSingleParams",
          "name": "params",
          "type": "tuple"
        }
      ],
      "name": "exactInputSingle",
      "outputs": [
        {
          "internalType": "uint256",
          "name": "amountOut",
          "type": "uint256"
        }
      ],
      "stateMutability": "payable",
      "type": "function"
    },
    {
      "inputs": [],
      "name": "mockOutput",
      "outputs": [
        {
          "internalType": "uint256",
          "name": "",
          "type": "uint256"
        }
      ],
      "stateMutability": "view",
      "type": "function"
    },
    {
      "inputs": [
        {
          "internalType": "uint256",
          "name": "_output",
          "type": "uint256"
        }
      ],
      "name": "setMockOutput",
      "outputs": [],
      "stateMutability": "nonpayable",
      "type": "function"
    }
  ],
  "bytecode": "0x608060405234601c57600e6020565b61083761002b823961083790f35b6026565b60405190565b5f80fdfe60806040526004361015610013575b6101df565b61001d5f3561004c565b8063414bf38914610047578063448a3bce146100425763c821bb140361000e576101ac565b610131565b6100b8565b60e01c90565b60405190565b5f80fd5b5f80fd5b908161010091031261006f5790565b61005c565b906101008282031261008e5761008b915f01610060565b90565b610058565b90565b61009f90610093565b9052565b91906100b6905f60208501940190610096565b565b6100df6100ce6100c9366004610074565b610564565b6100d6610052565b918291826100a3565b0390f35b5f80fd5b5f9103126100f157565b610058565b1c90565b90565b61010d90600861011293026100f6565b6100fa565b90565b9061012091546100fd565b90565b61012e5f5f90610115565b90565b34610161576101413660046100e7565b61015d61014c610123565b610154610052565b918291826100a3565b0390f35b6100e3565b61016f81610093565b0361017657565b5f80fd5b9050359061018782610166565b565b906020828203126101a25761019f915f0161017a565b90565b610058565b5f0190565b346101da576101c46101bf366004610189565b6107f5565b6101cc610052565b806101d6816101a7565b0390f35b6100e3565b5f80fd5b5f90565b356101f181610166565b90565b60209181520190565b5f7f4578706972656400000000000000000000000000000000000000000000000000910152565b61023160076020926101f4565b61023a816101fd565b0190565b6102539060208101905f818303910152610224565b90565b1561025d57565b610265610052565b62461bcd60e51b81528061027b6004820161023e565b0390fd5b62ffffff1690565b6102908161027f565b0361029757565b5f80fd5b356102a581610287565b90565b90565b90565b6102c26102bd6102c7926102a8565b6102ab565b61027f565b90565b90565b6102e16102dc6102e6926102ca565b6102ab565b61027f565b90565b90565b6103006102fb610305926102e9565b6102ab565b61027f565b90565b5f7f496e76616c696420666565000000000000000000000000000000000000000000910152565b61033c600b6020926101f4565b61034581610308565b0190565b61035e9060208101905f81830391015261032f565b90565b1561036857565b610370610052565b62461bcd60e51b81528061038660048201610349565b0390fd5b60018060a01b031690565b61039e9061038a565b90565b6103aa81610395565b036103b157565b5f80fd5b356103bf816103a1565b90565b6103d66103d16103db9261038a565b6102ab565b61038a565b90565b6103e7906103c2565b90565b6103f3906103de565b90565b6103ff906103c2565b90565b61040b906103f6565b90565b610417906103f6565b90565b601f801991011690565b634e487b7160e01b5f52604160045260245ffd5b906104429061041a565b810190811067ffffffffffffffff82111761045c57604052565b610424565b60e01b90565b151590565b61047581610467565b0361047c57565b5f80fd5b9050519061048d8261046c565b565b906020828203126104a8576104a5915f01610480565b90565b610058565b6104b690610395565b9052565b6040906104e36104ea94969593966104d960608401985f8501906104ad565b60208301906104ad565b0190610096565b565b6104f4610052565b3d5f823e3d90fd5b5f1c90565b61050d610512916104fc565b6100fa565b90565b61051f9054610501565b90565b90565b61053961053461053e92610522565b6102ab565b610093565b90565b91602061056292949361055b60408201965f8301906104ad565b0190610096565b565b61056c6101e3565b5061059561057c608083016101e7565b61058e61058842610093565b91610093565b1015610256565b6105a16040820161029b565b6105b56105af6101f46102ae565b9161027f565b148015610774575b8015610748575b6105cd90610361565b6105e86105e36105de5f84016103b5565b6103ea565b610402565b60206323b872dd9133906106235f6105ff3061040e565b9561062e61060f60a08a016101e7565b610617610052565b98899788968795610461565b8552600485016104ba565b03925af1801561074357610717575b506106475f610515565b6106596106535f610525565b91610093565b115f14610706576106695f610515565b5b90602061068861068361067e8385016103b5565b6103ea565b610402565b610699606063a9059cbb94016103b5565b906106b75f86956106c26106ab610052565b97889687958694610461565b845260048401610541565b03925af18015610701576106d5575b5090565b6106f59060203d81116106fa575b6106ed8183610438565b81019061048f565b6106d1565b503d6106e3565b6104ec565b61071260a082016101e7565b61066a565b6107379060203d811161073c575b61072f8183610438565b81019061048f565b61063d565b503d610725565b6104ec565b506105cd6107586040830161029b565b61076c6107666127106102ec565b9161027f565b1490506105c4565b506107816040820161029b565b61079561078f610bb86102cd565b9161027f565b146105bd565b5f1b90565b906107ac5f199161079b565b9181191691161790565b6107ca6107c56107cf92610093565b6102ab565b610093565b90565b90565b906107ea6107e56107f1926107b6565b6107d2565b82546107a0565b9055565b6107ff905f6107d5565b56fea26469706673582212203cc6506e0cc12ff323d53c301094e077c21bf682685a29becc83f3996c8b75b464736f6c634300081c0033",
  "linkReferences": {},
  "deployedLinkReferences": {},
  "immutableReferences": {},
  "inputSourceName": "project/contracts/RouterV3Mock.sol",
  "buildInfoId": "solc-0_8_28-27a606926fd5671eeb46ad64e4180832619041bb"
}